{
  "_format": "hh-sol-artifact-1",
  "contractName": "Model",
  "sourceName": "contracts/Model.sol",
  "abi": [
    {
      "inputs": [],
      "stateMutability": "nonpayable",
      "type": "constructor"
    },
    {
      "anonymous": false,
      "inputs": [
        {
          "indexed": false,
          "internalType": "string",
          "name": "",
          "type": "string"
        },
        {
          "indexed": false,
          "internalType": "address",
          "name": "",
          "type": "address"
        },
        {
          "indexed": false,
          "internalType": "string",
          "name": "",
          "type": "string"
        }
      ],
      "name": "smith",
      "type": "event"
    },
    {
      "anonymous": false,
      "inputs": [
        {
          "indexed": false,
          "internalType": "string",
          "name": "",
          "type": "string"
        },
        {
          "indexed": false,
          "internalType": "address",
          "name": "",
          "type": "address"
        },
        {
          "indexed": false,
          "internalType": "uint256",
          "name": "",
          "type": "uint256"
        }
      ],
      "name": "smith1",
      "type": "event"
    },
    {
      "inputs": [],
      "name": "Owner",
      "outputs": [
        {
          "internalType": "address payable",
          "name": "",
          "type": "address"
        }
      ],
      "stateMutability": "view",
      "type": "function"
    },
    {
      "inputs": [],
      "name": "calCost",
      "outputs": [
        {
          "internalType": "uint256",
          "name": "",
          "type": "uint256"
        }
      ],
      "stateMutability": "nonpayable",
      "type": "function"
    },
    {
      "inputs": [],
      "name": "checkContractBal",
      "outputs": [
        {
          "internalType": "uint256",
          "name": "",
          "type": "uint256"
        }
      ],
      "stateMutability": "view",
      "type": "function"
    },
    {
      "inputs": [
        {
          "internalType": "uint256",
          "name": "_space",
          "type": "uint256"
        }
      ],
      "name": "diskSpace",
      "outputs": [],
      "stateMutability": "nonpayable",
      "type": "function"
    },
    {
      "inputs": [],
      "name": "getPrice",
      "outputs": [
        {
          "internalType": "uint256",
          "name": "",
          "type": "uint256"
        }
      ],
      "stateMutability": "view",
      "type": "function"
    },
    {
      "inputs": [],
      "name": "payment",
      "outputs": [],
      "stateMutability": "payable",
      "type": "function"
    },
    {
      "inputs": [],
      "name": "price",
      "outputs": [
        {
          "internalType": "uint256",
          "name": "",
          "type": "uint256"
        }
      ],
      "stateMutability": "view",
      "type": "function"
    }
  ],
  "bytecode": "0x6080604052670de0b6b3a764000060015534801561001c57600080fd5b50600380546001600160a01b031916331790556105908061003e6000396000f3fe6080604052600436106100705760003560e01c80637d7e9ae21161004e5780637d7e9ae2146100bf57806398d5fdca146100df578063a035b1fe146100f4578063b4a99a4e1461010957610070565b80632d5675e41461007557806342f6487a146100a05780637833f1f1146100aa575b600080fd5b34801561008157600080fd5b5061008a61012b565b6040516100979190610526565b60405180910390f35b6100a861012f565b005b3480156100b657600080fd5b5061008a61036c565b3480156100cb57600080fd5b506100a86100da3660046103a8565b610388565b3480156100eb57600080fd5b5061008a61038d565b34801561010057600080fd5b5061008a610393565b34801561011557600080fd5b5061011e610399565b60405161009791906103ef565b4790565b6000306001600160a01b0316637833f1f16040518163ffffffff1660e01b8152600401602060405180830381600087803b15801561016c57600080fd5b505af1158015610180573d6000803e3d6000fd5b505050506040513d601f19601f820116820180604052508101906101a491906103c0565b6003546040519192507f6ee6da56e350ebccf019921462a2b5565fecbf13e88c897bc791cc166099291f916101e2916001600160a01b0316906104e0565b60405180910390a16003546002546040517f5e1d5ac43f938ffc808713db61444de5c95793f296def9c3b5960981c7d233a99261022a926001600160a01b039091169161044f565b60405180910390a1333181111561025c5760405162461bcd60e51b81526004016102539061048c565b60405180910390fd5b6003546040517f6ee6da56e350ebccf019921462a2b5565fecbf13e88c897bc791cc166099291f91610299916001600160a01b0390911690610403565b60405180910390a16003546040516001600160a01b039091169082156108fc029083906000818181858888f193505050501580156102db573d6000803e3d6000fd5b506003546040517f6ee6da56e350ebccf019921462a2b5565fecbf13e88c897bc791cc166099291f91610319916001600160a01b0390911690610403565b60405180910390a16003546002546040517f5e1d5ac43f938ffc808713db61444de5c95793f296def9c3b5960981c7d233a992610361926001600160a01b039091169161044f565b60405180910390a150565b600060015460005461037e919061052f565b6002819055905090565b600055565b60015490565b60015481565b6003546001600160a01b031681565b6000602082840312156103b9578081fd5b5035919050565b6000602082840312156103d1578081fd5b5051919050565b6004815263646f6e6560e01b602082015260400190565b6001600160a01b0391909116815260200190565b600060608252600e60608301526d18599d195c881c995c5d5a5c995960921b608083015260018060a01b038316602083015260a0604083015261044860a083016103d8565b9392505050565b6060808252600d908201526c30b33a32b9103a3930b739b2b960991b60808201526001600160a01b03929092166020830152604082015260a00190565b60208082526034908201527f4163636f756e742042616c616e6365206973206c6f776572207468616e20746f60408201527374616c20616d6f756e7420746f2062652070617960601b606082015260800190565b600060608252600f60608301526e1899599bdc99481c995c5d5a5c9959608a1b608083015260018060a01b038316602083015260a0604083015261044860a083016103d8565b90815260200190565b600081600019048311821515161561055557634e487b7160e01b81526011600452602481fd5b50029056fea264697066735822122074d468524351da303d4b235f9107b730183b7ce09a1c730f8cb70cb9cf8aeba564736f6c63430008000033",
  "linkReferences": {},
  "deployedLinkReferences": {}
}